{
    "contractName": "AddNumbers",
    "abi": [
        {
            "inputs": [
                {
                    "internalType": "uint256",
                    "name": "x",
                    "type": "uint256"
                },
                {
                    "internalType": "uint256",
                    "name": "y",
                    "type": "uint256"
                }
            ],
            "name": "add",
            "outputs": [],
            "stateMutability": "nonpayable",
            "type": "function"
        },
        {
            "inputs": [],
            "name": "getSum",
            "outputs": [
                {
                    "internalType": "uint256",
                    "name": "",
                    "type": "uint256"
                }
            ],
            "stateMutability": "view",
            "type": "function"
        }
    ],
    "bytecode": "608060405234801561001057600080fd5b5060e88061001f6000396000f3fe6080604052348015600f57600080fd5b506004361060325760003560e01c8063569c5f6d146037578063771602f714604c575b600080fd5b60005460405190815260200160405180910390f35b605b6057366004606c565b605d565b005b60658183608d565b6000555050565b60008060408385031215607e57600080fd5b50508035926020909101359150565b6000821982111560ad57634e487b7160e01b600052601160045260246000fd5b50019056fea26469706673582212203c9d9172487863eb02eaee4d622bd390b692ea981f77c4a8ea0bc64e4ac77c9c64736f6c634300080f0033",
    "sourcePath": "/Users/martin/30daychallenge/add.sol",
    "compiler": {
        "name": "solc",
        "version": "0.8.15+commit.e14f2714"
    },
    "functionHashes": {
        "add(uint256,uint256)": "771602f7",
        "getSum()": "569c5f6d"
    },
    "gasEstimates": {
        "creation": {
            "codeDepositCost": "46400",
            "executionCost": "99",
            "totalCost": "46499"
        },
        "external": {
            "add(uint256,uint256)": "22421",
            "getSum()": "2246"
        }
    }
}